:020000040800F2
:10000000C00400209D010008671C00088917000833
:10001000651C0008D5080008AD1F0008000000009E
:100020000000000000000000000000008B1C000821
:10003000D708000800000000891C00088D1C00087B
:10004000B7010008B7010008B7010008B7010008B0
:10005000B7010008B7010008B7010008B7010008A0
:10006000D9080008B7010008B7010008B701000867
:10007000B7010008B7010008B7010008B701000880
:10008000B7010008B701000871070008B7010008B0
:10009000B7010008B7010008B7010008B701000860
:1000A000B7010008B7010008B7010008B701000850
:1000B000B7010008B7010008B7010008B701000840
:1000C000B7010008B7010008B7010008B701000830
:1000D000B7010008B7010008B7010008B701000820
:1000E000B7010008B7010008B7010008B701000810
:1000F000B7010008B7010008B7010008B701000800
:10010000B7010008B7010008B7010008B7010008EF
:10011000B7010008B7010008B7010008B7010008DF
:10012000B7010008B7010008B7010008B7010008CF
:10013000B7010008B7010008B7010008B7010008BF
:10014000B7010008B7010008B7010008B7010008AF
:10015000B7010008B7010008B7010008B70100089F
:10016000B7010008B7010008B7010008B70100088F
:10017000B7010008B7010008B7010008000000003F
:10018000B7010008B7010008DFF80CD000F0CCFA86
:10019000004800471D290008C00400200648804789
:1001A00006480047FEE7FEE7FEE7FEE7FEE7FEE75C
:1001B000FEE7FEE7FEE7FEE7151D000889010008DF
:1001C0002DE9F05F0546002092469B46884606468C
:1001D000814640241BE0284641464746224600F01F
:1001E0005EF953465A46C01A914110D3114618463B
:1001F000224600F045F92D1A67EB01084F462246CA
:100200000120002100F03CF917EB00094E41201EAF
:10021000A4F10104DFDC484631462A464346BDE8E6
:10022000F09FD2B201E000F8012B491EFBD27047CB
:100230000022F6E710B513460A4604461946FFF7B2
:10024000F0FF204610BD2DE9FE4F81EA030404F0C3
:10025000004421F0004100944FF0000B23F00043D4
:1002600050EA01045ED052EA03045BD0C3F30A549F
:10027000C1F30A552C44A4F2F3340194A0FB0254B8
:10028000C1F3130141F48011C3F3130343F480134A
:1002900001FB024400FB034E840A970A44EA81549E
:1002A00047EA8357A4FB076802958D0A05FB07857B
:1002B0004FEA932C04FB0C542705029D4FEA065885
:1002C00047EA1637B5EB08056EEB070C870E920E62
:1002D00047EA811742EA8312A7FB0201B6EB0B0142
:1002E00064EB00042B0D43EA0C335E1844EB1C5006
:1002F000DA465146E7FB0201C5F313044FEA0B331C
:1003000043EA14534FEA0432019C43EA0603A4F182
:100310000C040294009CCDE900B400F0DFF803B0B7
:10032000BDE8F08F00200146F9E72DE9F04D81EAA4
:10033000030404F0004B21F0004514464FF0000A7E
:1003400023F0004150EA050220D054EA01021DD0FA
:10035000C5F30A570246C5F31303C1F31300C1F3F3
:100360000A5640F4801543F48013A7EB0608101BCF
:10037000D64608F2FD3873EB050002D308F10108F8
:1003800001E092185B41B8F1000F03DA002001464A
:10039000BDE8F08D00204FF48011064684460EE043
:1003A000171B73EB050705D3121B63EB050306430D
:1003B0004CEA010C49084FEA300092185B4150EAC0
:1003C0000107EDD152EA030012D082EA040083EA69
:1003D0000501084305D0101BAB4106D201220023C2
:1003E00006E000224FF0004302E06FF001025310DC
:1003F0001AEB06004CEB085110EB0A0041EB0B0125
:10040000BDE8F04D00F05BB80EB540F2334102910B
:100410000021CDE900110A460B4600F05FF803B059
:1004200000BDC1F30A5210B5C1F3130140F2FF330E
:1004300041F480119A4201DA002010BD40F23343AA
:100440009A42A2F2334203DC524200F028F810BD77
:10045000904010BD30B50B460146002020220124FB
:1004600009E021FA02F59D4205D303FA02F5491B82
:1004700004FA02F52844151EA2F10102F1DC30BD98
:10048000202A04DB203A00FA02F100207047914054
:10049000C2F1200320FA03F3194390407047202A49
:1004A00004DB203A21FA02F00021704721FA02F31E
:1004B000D040C2F12002914008431946704710B560
:1004C000141E73F1000408DA401C41F10001921877
:1004D0005B411A4301D120F0010010BD2DE9F04D20
:1004E00092469B4611B1B1FA81F202E0B0FA80F275
:1004F00020329046FFF7C4FF04460F4640EA0A0048
:1005000041EA0B0153465A46084313D0114653EAB9
:10051000010019D0C8F140025046FFF7C0FF054660
:100520000E46504659464246FFF7AAFF084305D0FB
:10053000012004E020463946BDE8F08D0020054347
:1005400046EAE0762C4337430A986305E40AA0EBB9
:1005500008000022FD0A44EA47540A3002D5002070
:100560000146E9E7010510196941DDE9084500196F
:100570006941BDE8F04DA2E72DE9FE4F804681EAD2
:100580000300C00F0C46009021F0004123F000450D
:10059000B8EB0200A94105D24046214690461C46D0
:1005A0000B46024623F00040104347D0270DC7F307
:1005B0000A00C3F30A510290401A019040286BDAF6
:1005C000C3F3130040F4801B0098924620B100232F
:1005D000D2EB030A63EB0B0B01985946C0F14002C2
:1005E0005046FFF74DFF06460D4650465946019AC4
:1005F00000F0ACF810EB08006141002487EA1152CA
:1006000084EAE7731A4340D0009A62B3019A012A40
:100610004FEA075215DC001B61EB02014FF000426C
:1006200002EA0752CDE90042001C41F58011324632
:100630002B46FFF753FF03B0BDE8F08F404621463D
:10064000F9E7001B61EB0201001C41F58013001863
:100650005B412018A2F5001747EB030140EAD57073
:10066000B6196D4111E06D084FEA360645EAC075CE
:100670004FEA0752001B61EB0201001C41F580119B
:1006800049084FEA30000019514132462B4603B069
:10069000BDE8F04FFFF713BF009801224000002390
:1006A000D0EB020263EBE073009821464FEAE0745E
:1006B000B8EB000061EB0401E9E783F000435BE77E
:1006C00081F0004158E7C1F30A52C1F3130140F22F
:1006D000FF3341F480119A4202DA0020014670474C
:1006E00040F233439A42A2F2334202DC5242FFF715
:1006F000D6BEFFF7C5BE000030B5041E71F1000480
:1007000004DB4FF00044404264EB0101141E73F11E
:10071000000405DB1C464FF00043524263EB040328
:10072000994208BF904230BD064C074D06E0E06894
:1007300040F0010394E8070098471034AC42F6D328
:10074000FFF726FD8C2A0008AC2A0008202A06DBC9
:10075000CB17203A41FA02F043EAE07306E041FA8F
:1007600002F3D040C2F1200291400843194670477D
:1007700010B50B4800F064F9FFF746FE9FED091B2A
:1007800053EC112BFFF7D1FDFFF74BFE0749088013
:10079000034800F059FABDE81040014800F053B991
:1007A0003C00002000000000000004402400002065
:1007B000454910B54A6822F440324A604A684368A5
:1007C0001A434A6001684A6822F480724A600168EC
:1007D0004A68036942EA03224A6001684A6822F0D3
:1007E00040724A6001684A6883681A434A60016837
:1007F0008A6822F400628A6001688A68C3681A43C2
:100800008A60816A6FF07062D14201688A6822F062
:1008100070628A6001688A680CD0836A1A438A60B1
:1008200001688A6822F040528A6001688A68C36A57
:100830001A4301E022F040528A6001688A6822F07F
:1008400002028A6001688A68836942EA43028A6018
:10085000016A002901684A680FD042F400624A60C8
:1008600001684A6822F460424A6001684A68174C8D
:10087000436A04EB43331A4301E022F400624A6006
:100880000168CA6A22F47002CA620168CA6A838B6C
:100890000F4C04EB03531A43CA6201688A6822F4BE
:1008A00000728A6001688A68036B42EA43228A60A8
:1008B00001688A6822F480628A6001688A684069F7
:1008C00042EA8020886010BD0023014000E0FFFF65
:1008D0000000F0FFFEE7704703480168491C016013
:1008E000042000F029BA0000280000207047000012
:1008F00078B50024009490F83C20012A19D00122F8
:1009000080F83C200A6807230568092A13D9EE6895
:100910000A3A02EB420293409E43EE600B788A68EB
:100920000A3B03EB43039A400368DD682A43DA601D
:1009300010E0022078BD2E6902EB420293409E43F4
:100940002E610B788A6803EB43039A4003681D69A4
:100950002A431A614A681F23072A13D205686E6B5F
:10096000521E02EB820293409E436E630B790A880B
:100970005B1E92B203EB83039A4003685D6B2A43CC
:100980005A6327E005680D2A12D22E6BD21F02EBA4
:10099000820293409E432E630B790A88DB1F92B23A
:1009A00003EB83039A4003681D6B2A431A6311E02B
:1009B000EE6A0D3A02EB820293409E43EE620B799F
:1009C0000A880D3B92B203EB83039A400368DD6A09
:1009D0002A43DA62164B0568144A9D4206D10D6817
:1009E000122D03D1556845F48005556005689D4278
:1009F00018D10B68102B01D0112B13D1536843F47D
:100A000000035360096810290CD10A490A4A096891
:100A1000B1FBF2F101EB8101490000E0491E0091B8
:100A20000029FBD180F83C40002078BD0023014024
:100A3000002001403800002040420F0070477047FE
:100A40000068C06C704770B5044600680168426871
:100A5000C1F34001C2F3401251B34AB3216CC9063D
:100A600003D4216C41F400712164816811F0405F6E
:100A700017D1A169A9B9C16A11F4700F02D08168B8
:100A800049050ED4416821F020014160206C20F41A
:100A900080702064206CC00403D4206C40F00100FE
:100AA00020642046FFF7CAFF21686FF0120008603B
:100AB000206801684268C1F38001C2F3C01289B3A3
:100AC00082B3216CC90603D4216C41F40051216426
:100AD000816811F4401F1ED1816B11F4401F02D0B8
:100AE0008168490517D44168490514D4816811F01B
:100AF000405F10D1A16971B9416821F08001416066
:100B0000206C20F480502064206CC00503D4206C3D
:100B100040F0010020642046FFF7E8FE21686FF0F6
:100B20000C00086020680168426811F0010FC2F3F0
:100B300080120ED06AB10068C0070AD0206C40F461
:100B400080302064204600F046F821686FF00100F4
:100B50000860206801684268C1F34011C2F38062F6
:100B600000290DD0002A0BD0616C41F002016164B4
:100B70006FF0200505602046FFF761FF20680560E3
:100B800070BD70B504004FF0000503D0206C002646
:100B900010B107E0012070BD666484F83C60204617
:100BA00000F01AF8206CC00610D4206C20F4885095
:100BB00040F0020020642046FFF7FAFD6664206CD6
:100BC00020F0020040F00100206400E0012584F8DC
:100BD0003C60284670BD704710B586B004461421AD
:100BE0006846FFF725FB15492068884224D1144840
:100BF0000021026842F480720260006800F4807094
:100C000005900F481438026842F001020260006843
:100C100000F001000590062000900320CDE90101BD
:100C20006946084800F094F800221146122000F0AE
:100C3000D9F9122000F0CAF906B010BD0020014019
:100C4000443802400000024018B50021009190F89D
:100C50003C20012A07D0012280F83C2002689368DA
:100C6000DB0702D011E0022018BD936843F00103B6
:100C70009360224A224B1268B2FBF3F202EB42026B
:100C800000E0521E0092002AFBD102689368DB0745
:100C900032D0036C40F20164A34343F480730364D5
:100CA00053685B0505D5036C23F4005343F480536C
:100CB0000364036CDB0404D5436C23F00603436434
:100CC00000E0416480F83C100E4B6FF0220111608F
:100CD00001684A680C4C22434A6059680068C9069A
:100CE00002D00A49884207D1816811F0405F03D1E0
:100CF000816841F080418160002018BD38000020EB
:100D000040420F0000230140200000040020014069
:100D100070B5044600F0FAF80546601C02D004489D
:100D20000078044400F0F2F8401BA042FAD370BDF2
:100D30002C00002070470000044910B50A680242E8
:100D400002D00860FFF7F6FF10BD0000143C014020
:100D50002DE9F84FDFF87CB100224FF001084FF089
:100D6000030A4FF00F090BF1040E00BF0B6808FADD
:100D700002F42340A3426ED14D68022D01D0122D02
:100D80000ED1D50800EB850CDCF820505607F70E85
:100D900009FA07F6B5430E69BE402E43CCF8206031
:100DA000066855000F790AFA05FC07F0030726EAE2
:100DB0000C06AF40374307604E68012E05D0022E67
:100DC00003D0112E01D0122E0ED18668CF6826EAEC
:100DD0000C06AF40374387604668A6430C79C4F3DE
:100DE0000014944034434460C6688C6826EA0C06BC
:100DF000AC403443C4604C68E40065D5364C25688B
:100E000045F480452560246822F0030504F48044FD
:100E10000094324C2E19D6F8084895072F0F09FA7E
:100E200007F5AC432E4DA84201D1002524E02D4DFD
:100E3000A84201D101251FE02B4DA84201D1022576
:100E40001AE02A4DA84201D1032515E0284DA842F9
:100E500002D1042510E037E0264DA84201D1052536
:100E60000AE0254DA84201D1062505E0234DA84200
:100E700001D1072500E00825BD402543C6F80858E4
:100E8000DBF800405D464E689C43F60300D51C43EA
:100E90002C60DEF8004075464E689C43B60300D5D2
:100EA0001C432C600B4D08352C684E689C43F602A1
:100EB00000D51C432C60074D0C352C684E689C43B4
:100EC000B60200D51C432C60521C102AFFF44EAF12
:100ED000BDE8F88F003C014044380240003001403A
:100EE000000002400004024000080240000C0240E2
:100EF000001002400014024000180240001C024092
:100F00000AB1816170470904FBE70000014880686D
:100F1000704700002C0000200248816802781144CC
:100F2000816070472C0000200B4810B5016841F427
:100F300000710160016841F480610160016841F461
:100F400080710160032000F06DF8002000F006F8C9
:100F500000F024F8002010BD003C024070B50D4D9B
:100F600004464FF47A712878B1FBF0F00A49096819
:100F7000B1FBF0F000F0F0FA48B9102C07D20022D3
:100F80002146501E00F02EF800206C6070BD01203C
:100F900070BD00002C000020380000200A4808B571
:100FA000016841F480410160006800F480400090D5
:100FB0000548001F016841F080510160006800F0A1
:100FC0008050009008BD00004438024000F01F022D
:100FD000012191404009800000F1E020C0F800119B
:100FE00070470000F0B40E4B1B680C46C3F302239D
:100FF000C3F10705042D00D90425191D072901D2C5
:10100000002300E0DB1E012606FA05F1491E2140FF
:1010100099409E40761E16403143F0BC00F024BE3D
:101020000CED00E0064900F0070208684FF6FF03E8
:10103000184040EA0220034A10430860704700004D
:101040000CED00E00000FA052DE9F0470E46050022
:1010500065D0DFF81481D8F80000F7B200F00F0077
:10106000B04207D288F80070D8F8000000F00F00F6
:10107000B04254D128683D4C810712D5400703D5B2
:10108000206840F4E05020602878000703D52068ED
:1010900040F4604020602068A96820F0F000084318
:1010A00020602878C0072DD03049686808390128A9
:1010B00012D0022813D0032811D00968890700290B
:1010C0002DDA216821F0030101432160FFF71EFFA3
:1010D000814641F2883A0EE009688903EFE7096822
:1010E0008901ECE7FFF712FFA0EB0901514502D996
:1010F0000320BDE8F0872068696800F00C00B0EBC1
:10110000810FEFD1D8F80010404601F00F01B14235
:1011100007D90770006800F00F00B04201D001202D
:10112000E7E72878400705D52068E96820F4E05013
:10113000084320602878000706D52068296920F434
:10114000604040EAC100206000F046F82168084A8B
:10115000C1F30311515CC840064908600020FFF745
:10116000FDFE0020C5E70000003C024008380240B8
:10117000742A0008380000200F2202600C4A13680D
:1011800003F003034360136803F0F0038360136804
:1011900003F4E053C36012684FF4E05303EAD20251
:1011A00002610448006800F00F000860704700000A
:1011B00008380240003C02400448054900680968BC
:1011C000044AC1F38221515CC840704738000020B6
:1011D00008380240842A0008154810B5006810F04D
:1011E0000C02144813D01449042A0FD0082A0ED137
:1011F0000F4C241F2268236802F03F025B0207D5D0
:101200002068C0F38810A0FB010106E0084610BD6D
:101210002168C1F38811A1FB00010023FEF7D0FF74
:101220002168C1F30141491C4900B0FBF1F010BD38
:10123000083802400024F40040787D012DE9F84F81
:10124000050076D02878DFF8F8B2BE4CC00749D048
:10125000DBF800105846C1F38101012908D000686D
:10126000C0F3810002280AD1201D0068400206D583
:101270002068800336D568680028E2D032E06868CC
:10128000B0F5803F10D0B0F5A02F206810D020F42A
:1012900080302060206820F4802020606868A0B141
:1012A000FFF734FE06460CE0206840F48030F4E797
:1012B00040F480202060F7E7FFF728FE801B6428B9
:1012C00073D820688003F7D50CE0FFF71FFE0646B1
:1012D00005E000BFFFF71AFE801B6428F0D82068E5
:1012E0008003F7D42878DFF8608280074FF0000988
:1012F0003ED5DBF80010584611F00C0F09D00068FD
:10130000C0F3810002280BD18D48001F0068400205
:1013100006D42068800715D5E868012809D111E0B6
:10132000E868B8B10120C8F80000FFF7EFFD0646F5
:1013300005E002E1FFF7EAFD801B0228C0D8206823
:101340008007F7D52068296920F0F80040EAC1003D
:1013500020600DE0C8F80090FFF7D8FD064604E0D5
:10136000FFF7D4FD801B02281FD820688007F7D420
:101370002878000722D5724E744869696C3671B1BD
:1013800001210160FFF7C2FD074604E0FFF7BEFD43
:10139000C01B022809D830688007F7D50EE0C0F8D6
:1013A0000090FFF7B3FD074605E083E0FFF7AEFDD1
:1013B000C01B02287ED830688007F7D42878400701
:1013C00068D5DFF87CA100270AF1380ADAF80000B6
:1013D000C0000BD4DAF8001041F08051CAF80010B8
:1013E000DAF80000012700F080500090584E306875
:1013F000C00510D4306840F480703060FFF786FD7F
:10140000009005E0FFF782FD0099401A022851D8AC
:101410003068C005F6D54A4EA868683601280FD056
:101420000528306810D020F001003060306820F0CE
:1014300004003060A868B8B1FFF768FD00900FE0C5
:10144000306840F00100F4E740F004003060F7E756
:10145000FFF75CFD0099411A41F28830814264D85F
:1014600030688007F4D50EE0FFF750FD009007E0EC
:10147000FFF74CFD0099411A41F28830814254D85F
:1014800030688007F4D42FB1DAF8001021F08051D1
:10149000CAF80010A869C0B3DBF80010C1F38101DD
:1014A00002294AD00228484607D0C8F86000FFF752
:1014B0002DFD00E039E005463AE04746C8F86000F7
:1014C000FFF724FD064604E0FFF720FD801B0228FD
:1014D0002BD820688001F7D4D5E907010843A96A11
:1014E0001C4A490802EB01416A6A41EA8211084339
:1014F00095F82C1040EA01611148001F016001209D
:101500003866FFF703FD054605E014E0FFF7FEFC33
:10151000401B022809D820688001F7D50BE000BFE6
:10152000FFF7F4FC401B022802D90320BDE8F88F26
:1015300020688001F4D40020F8E70120F6E70000DD
:10154000083802400038024000004742800E4742FF
:10155000007000400000FFFF10B5401EB0F1807F1A
:1015600001D3012010BD4FF0E02460610F2160170E
:1015700000F07AFB0020A06107202061002010BD50
:1015800030B590F83820012A20D0012280F8382088
:10159000022380F8393003685C6824F070045C60D2
:1015A00003685C680D682C435C6003689C6824F0E9
:1015B00080049C6003689C6849680C439C6080F8C8
:1015C0003920002180F83810084630BD022030BD97
:1015D00010B586B0044614216846FEF729FE0D4971
:1015E0002068884214D10C480021026842F00102B0
:1015F0000260006800F00100059040200090022089
:10160000CDE90101CDE9031069460448FFF7A0FBCD
:1016100006B010BD00040040303802400000024017
:1016200070B5044690F838000D4601280DD001260B
:1016300084F83860022084F8390042B1042A18D0B6
:10164000082A2AD00C2A4DD139E0022070BD20682A
:1016500000F0F6FB2068816941F008018161206893
:10166000816921F004018161206881692A6911433F
:1016700011E0206800F010FC2068816941F40061ED
:1016800081612068816921F48061816120688169BC
:101690002A6941EA0221816124E0206800F02EFCE1
:1016A0002068C16941F00801C1612068C16921F069
:1016B0000401C1612068C1692A69114311E02068F1
:1016C00000F04CFC2068C16941F40061C1612068F0
:1016D000C16921F48061C1612068C1692A6941EA58
:1016E0000221C16184F83960002084F8380070BD9F
:1016F00010B5040003D094F8390010B107E00120C0
:1017000010BD002084F83800204600F00DF80220BB
:1017100084F83900211D206800F026FB012084F8A0
:101720003900002010BD000008B500680649884255
:1017300008D10648016841F002010160006800F02C
:101740000200009008BD0000000400404038024044
:1017500010B504460068012200F066FB08492068C5
:10176000884202D00749884203D1416C41F40041CC
:1017700041642068016841F001010160002010BD52
:101780000000014000040140FEE70121084600F08E
:10179000E7B80121022000F0E3B800002DE9F05F76
:1017A0000AAC94E8E05F1E4CA061A180E280E36196
:1017B00025816681A781A4F80E80C4F82090A4F842
:1017C00010A0A4F812B0A4F814C0A4F816E000F019
:1017D00055F8012020703820A0701420FFF798FAE7
:1017E000302000F03FF90520FFF792FA302000F09A
:1017F00039F90120FFF78CFA302000F033F901208D
:10180000FFF786FA382000F02DF90F2000F02AF9B2
:10181000012000F027F9BDE8F05F0220FFF778BA59
:101820000000002010B5094C0122E188A069FFF7F3
:1018300067FB0A2000F06CF80022E188A069FFF73E
:101840005FFBBDE810403C2000F062B800000020C3
:101850001FB5024603A1684600F0AAFB684600F0E7
:101860006DF81FBD2564000002000348818880696F
:1018700000D00122FFF744BB0000002000B587B074
:1018800005A96846FFF778FC0398A8B3FFF794FC16
:101890005FEA4000FEF7B8FD9FED191B53EC112BDA
:1018A000FEF7D1FCFEF7BDFD17490A6842F00202BF
:1018B0000A6016490A6822F010020A600A6822F0DB
:1018C00001020A600A6822F004020A600A6842F013
:1018D00008020A600D492831401E08600920091DD0
:1018E00008600A49012014310860081F016821F0CE
:1018F0000101016007B000BDFFE7FFF75DFCC9E72C
:101900008DEDB5A0F7C6B03E40380240000400405F
:101910000949401E086008481C38016821F001018F
:10192000016005492C390A6842F001020A60016829
:10193000C907FCD0704700002C04004070B5064673
:10194000002409E00120FFF78FFF284600F018F877
:10195000641CE4B2102C02D2355D002DF2D170BDB2
:10196000491E01F00F01012806D0022807D141F0DD
:10197000C00000BF00F076B841F08000FAE7704781
:101980002DE9F84F0209364C02F0080302F0040B6F
:10199000217802F0020902F0010700F0080A00F0C5
:1019A000040600F0020500F00108009301292FD081
:1019B000022952D13A46218A206AFFF7A1FA4A4603
:1019C000618A206AFFF79CFA5A46A18A206AFFF7CB
:1019D00097FAE18A009A206AFFF792FAFFF722FF4E
:1019E0004246218A206AFFF78BFA2A46618A206ADA
:1019F000FFF786FA3246A18A206AFFF781FA52463B
:101A0000E18A206AFFF77CFABDE8F84FFFF70ABFCA
:101A100042462189E069FFF773FA2A466189E06945
:101A2000FFF76EFA3246A189E069FFF769FA52467C
:101A3000E189E069FFF764FA3A46218A206AFFF7F4
:101A40005FFA4A46618A206AFFF75AFA5A46A18A23
:101A5000206AFFF755FA009AD2E7BDE8F88F000038
:101A60000000002010B504460020FFF7FDFE2046D0
:101A7000BDE81040FFF784BF1FB500211148009159
:101A8000019102910E4A039102604FF48032C0E945
:101A90000121016181610C4A0162C0E90A2101242E
:101AA000C160C46144610163FFF76BF804200094D6
:101AB000CDE9014069460348FEF71AFF1FBD00004B
:101AC000002001403C0000200100000F2DE9F04FF4
:101AD00087B014216846FEF7ABFB43480024016839
:101AE00041F004010160016801F004010591016801
:101AF00041F001010160016801F0010105910168F7
:101B000041F002010160016801F0020105910168E4
:101B100041F008010160016801F0080105910168C8
:101B200041F0100101600068DFF8C08000F0100093
:101B30000590002230214046FFF7E2F9DFF8B0902F
:101B40004FF47046002231464846FFF7D9F9DFF8D6
:101B5000A4A03711002239465046FFF7D1F9DFF82B
:101B600098B0002203215846FFF7CAF904200090DC
:101B70002248CDE9010469462148FFF7E9F801252B
:101B8000CDE90054694640460294FFF7E1F8302061
:101B90000090CDE90154694640460394FFF7D8F818
:101BA0000096CDE90154694648460394FFF7D0F802
:101BB0000097CDE90154694650460394FFF7C8F8F1
:101BC00003200090CDE90154694658460394FFF77D
:101BD000BFF8002211460820FFF704FA0820FFF79B
:101BE000F5F907B0BDE8F08F303802400000024040
:101BF00000040240000C02400010024000001110DE
:101C00000008024010B58AB0002407941C216846E1
:101C10000894FEF70DFB12481049016043F67F61FE
:101C2000C0E901146321C0E90314FFF761FD0794C3
:101C300007A90B480894FFF7A3FC602000906420DC
:101C4000CDE901040022694605480494FFF7E8FC49
:101C50000348FFF7BDFC0AB010BD000000040040BF
:101C600084000020FEE770470907090E002806DA05
:101C700000F00F0000F1E02080F8141D704700F123
:101C8000E02080F80014704770477047FFF744B9B0
:101C900030B593B030216846FEF7CAFA14210CA87B
:101CA000FEF7C6FA19480025016841F0805101602D
:101CB000006800F0805011901548016841F480419F
:101CC00001600068022400F480401190012003901C
:101CD00010200490009406940820CDE90750A82015
:101CE000CDE9090404200B906846FFF7A7FA0CA978
:101CF0000F2081E831004FF4A0500F90E0021090C7
:101D000005210CA8FFF7A0F913B030BD4038024000
:101D1000007000401048016841F4700101600F48F4
:101D2000016841F0010101600C4A00210832116094
:101D300002680B4B1A400260031D0A4A1A600268CF
:101D400022F48022026005480C30016002495806E6
:101D5000803908607047000088ED00E000380240DC
:101D6000FFFFF6FE10300024F0B50268234B244D2F
:101D7000244E254F254C4FF0804C984209D06045A9
:101D800007D0A84205D0B04203D0B84201D0A0424B
:101D900004D122F0700E4A6842EA0E0298421BD02B
:101DA000604519D0A84217D0B04215D0B84213D020
:101DB000A04211D0164DA8420ED0164DA8420BD00D
:101DC000154DA84208D0154DA84205D0144DA84283
:101DD00002D0144DA84203D122F44075CA682A43A8
:101DE00002608A68C2620A688262984201D0A04298
:101DF00001D10969016301214161F0BD0000014089
:101E00000004004000080040000C004000040140B5
:101E100000400140004401400048014000180040DB
:101E2000001C00400020004010B50123046A8B40D4
:101E30009C430462036A8A401343036210BD00009E
:101E400030B5026A22F001020262026A43688469C4
:101E50000D6824F07304254322F002048A682243AB
:101E60000B4CA04202D00B4CA0420BD122F0080434
:101E7000CA6823F4407322434C6922F004021C43D5
:101E80008B6923434360856149684163026230BDC9
:101E9000000001400004014030B5026A22F0100247
:101EA0000262026A436884690D6824F4E64444EAE5
:101EB00005248D6822F0200242EA05120D4DA84249
:101EC00002D00D4DA8420ED1CD6822F0800242EA28
:101ED00005124D6923F4406343EA85038D6922F0BE
:101EE000400243EA8503436084614968816302627A
:101EF00030BD0000000001400004014030B5026A1E
:101F000022F480720262036A4268C46923F4007397
:101F100024F073050C682C438D6843EA05230D4DAE
:101F2000A84202D00C4DA8420ED1CD6823F4006324
:101F300043EA05234D6922F4405242EA05128D69B5
:101F400023F4806342EA05124260C4614968C163B8
:101F5000036230BD000001400004014030B5026A58
:101F600022F480520262046A4268C3690D6823F455
:101F7000E64343EA05238D6824F4005444EA05341B
:101F8000084DA84202D0084DA84204D14D6922F460
:101F9000804242EA85124260C3614968016404627A
:101FA00030BD00000000014000040140FEE70000D9
:101FB0000FB4084B10B504A902AA039800F0DEF88C
:101FC000044602A9002000F070FC204610BC5DF819
:101FD00014FB0000AB28000802E008C8121F08C16B
:101FE000002AFAD170477047002001E001C1121F9A
:101FF000002AFBD1704700002DE9FF5F82B000216D
:10200000DDE90430020DDDF840B0034318D044F69A
:102010001050A2F2FF3242431514119801281FD02C
:10202000A5EB0B00401C5FEA000A4FF000064E4F84
:10203000DFF83891B046504615D5CAF1000413E0D8
:10204000119801244AA3012801D16FEA0B010298DB
:10205000119AC0E90031C0E9024206B0BDE8F09F24
:10206000CBF10000DFE704460021404A491842EB6B
:102070000450CDE9001012E0E00707D032463B469D
:1020800040464946FEF7DFF88046894632463B46E1
:1020900010461946FEF7D7F806460F466410002C86
:1020A000EAD1DDE90401DDE90023BAF1000F06DA27
:1020B000FEF7C9F842464B46FEF7C5F805E0FEF7C5
:1020C00034F942464B46FEF730F904460E460022EC
:1020D000284BFEF711FB03D84FF0FF30014607E015
:1020E0000022254B20463146FEF746FAFEF7EBFA72
:1020F000102409E0002C0ADB0A220023FEF760F816
:10210000039B30321A55641E50EA0102F2D1641C5E
:10211000039AC4F111031444119A012A03D0012235
:1021200008430DD10AE0084304D000204FF0110B02
:10213000119072E7A3EB0B056D1E0DE05B4504DD0E
:102140004FF0000205F1010504E003DA4FF0000250
:10215000A5F10105002AECD002981199C0E90231DD
:10216000C0E9004579E70000000014400000F03F9E
:10217000300000000000F0430000E03F2DE9FF4F79
:1021800095B09B468946064600250FE2252877D163
:1021900000242746F84A0121059400E0044316F87C
:1021A000013F203B01FA03F01042F7D130782A2892
:1021B00011D06FF02F033078A0F13002092A16D821
:1021C000059A44F0020402EB820203EB420210443F
:1021D000761C0590EFE759F8042B0592002A03DAE4
:1021E000504244F40054059044F00204761C3078C8
:1021F0002E2816D116F8010F44F004042A280DD019
:102200006FF02F023078A0F13003092B09D807EBCB
:10221000870302EB4303C718761CF3E759F8047BE6
:10222000761C30786C280FD006DC4C2817D0682834
:102230000DD06A2814D104E0742810D07A280FD168
:102240000DE044F400140AE044F4801401E044F486
:1022500040147278824202D104F58014761C761CF8
:10226000307866280BD013DC582877D009DC00289A
:1022700075D04528F6D04628F4D047281AD19DE1DC
:1022800018E0632835D0642879D0652812D195E10B
:10229000702873D008DC6728F1D069286FD06E28C9
:1022A0000DD06F2806D1B5E073282CD0752875D0D5
:1022B000782874D05A46179990476D1C75E1C4F37D
:1022C0000250022809D003280DD0D9F800100428A4
:1022D0000DD00D6009F1040967E1D9F80010EA1783
:1022E000C1E90052F6E7D9F800100D80F2E70D7051
:1022F000F0E719F8041B8DF8001000208DF801009C
:10230000EA46012003E059F804AB4FF0FF306107C3
:102310004FF0000102D40DE008F101018846B942F6
:102320000FDA8045F8DB1AF808100029F4D108E02C
:1023300008F1010188468142FADB1AF808100029E9
:10234000F6D105985B46A0EB080721463846179A58
:1023500000F094FA284400EB080507E04DE029E17D
:102360000DE01AF8010B5A4617999047B8F1010889
:10237000F7D25B4621463846179A13E142E00A221B
:102380000092C4F302524FF0000A022A08D059F812
:1023900004CB032A4FEAEC710AD00DE029E02AE0D1
:1023A00009F1070121F00702F2E802C1914609E0B4
:1023B0000FFA8CFC4FEAEC71042A03D14FFA8CFC23
:1023C0004FEAEC71002907DA0A460021DCF1000C23
:1023D00061EB02012D2202E0220504D52B228DF8AB
:1023E0000420012203E0E20701D02022F7E7904613
:1023F00059E00A2102E010220DE010214FF0000AFE
:1024000000910BE010224FF0000A44F0040408276A
:10241000009203E008224FF0000A0092C4F3025237
:10242000022A05D059F804CB0021032A08D009E07C
:1024300009F1070121F00702F2E802C1914605E027
:102440001FFA8CFC042A01D10CF0FF0C4FF000089D
:10245000220728D5702806D0009B83F0100353EA8A
:102460000A0305D00EE040228DF80420012208E086
:102470005CEA010206D030228DF804208DF80500B8
:1024800002229046009B83F0080353EA0A030AD114
:102490005CEA010201D1620705D530228DF80420E3
:1024A0004FF001087F1E582804D034A003900EA8D6
:1024B00002900DE036A0F9E753466046009AFDF71A
:1024C0007FFE84460398825C0298401E0290027050
:1024D0005CEA0100F0D1029806A9081A00F1200A6E
:1024E000600702D524F4803400E00127574502DD5F
:1024F000A7EB0A0000E0002000EB0A01009005981D
:102500004144401A0590E00306D45B462146179AE1
:10251000059800F0B3F90544002706E001A85A46E3
:10252000C05D179990476D1C7F1C4745F6DBE003A3
:102530000CD55B462146179A059800F09FF9054493
:1025400004E030205A46179990476D1C0099481EA8
:1025500000900029F5DC08E0029802995A460078BC
:10256000491C0291179990476D1CBAF10001AAF11C
:10257000010AF1DC65E10000092801003031323345
:1025800034353637383961626364656600000000AF
:102590003031323334353637383941424344454699
:1025A0000000000000F058F90544761C307800283F
:1025B0007FF4ECAD19B02846BDE8F08F620700D477
:1025C000062709F1070222F0070CFCE80223E14686
:1025D00003F000485FEA080C02D00FF2702C0DE007
:1025E0005FEA045C02D50FF2682C07E05FEAC47C66
:1025F00002D00FF2602C01E0AFF2700C4FF0FF3808
:1026000023F00043CDF850C065280CD006DC4528E7
:1026100009D046281DD047283DD13DE0662818D076
:1026200067287ED138E00021112F01DB112000E066
:10263000781CCDE9000106A90EA8FFF7DDFCDDE955
:102640000F010E9A03910021009207F1010A0491F3
:102650004DE04FF000400097CDE9011006A90EA80B
:10266000FFF7CAFCDDE90F0203920E9B11990022CD
:10267000DDF80CA00093049211B9791C00EB010A5B
:10268000B7EB0A0004D4C0F1FF3007F1010A04904F
:10269000AAEB0700019044E0012F00DA0127002196
:1026A000112F01DD112000E03846CDE9000106A917
:1026B0000EA8FFF7A1FCDDE90F010E9A039100219E
:1026C00004910092BA4621070CD40399514500DACF
:1026D0008A46BAF1010F05DD009AAAF10101515CA9
:1026E000302908D0B84202DA10F1040F06DA0121CD
:1026F000CDE9011015E0AAF10101E9E7002805DCA8
:10270000049901440491AAEB000102E0411C5145E7
:1027100000DD8A460499401A401C01904FF00040A9
:102720000290200704D40198504501DBCDF80480C5
:1027300000208DF84F0002980DF14F07B0F1004FC7
:1027400025D02B200E9002984FF0020800280CDABA
:10275000404202902D200E9007E00A210298FDF7DA
:1027600079FE3031029007F8011DB8F10001A8F19F
:102770000108F2DC02980028EFD1791E0E9808704B
:10278000307800F0200040F0450007F8020D12A854
:10279000C01B00F107081498007800B1012000EB7D
:1027A0000A01019801EBE07105984144401A401E6E
:1027B0000590E00306D45B462146179A059800F081
:1027C0005DF805441498007818B15A461799904757
:1027D0006D1CE00324D55B462146179A059800F04E
:1027E0004DF805441CE00498002807DBDDE90301EF
:1027F000884203DD0098405C179901E0179930206A
:102800005A469047049805F10105401C0490019830
:10281000401E019004D12E205A46179990476D1CF6
:10282000BAF10001AAF1010ADDDC05E017F8010B9D
:102830005A46179990476D1CB8F10001A8F101089C
:10284000F4DC5B462146179A0598ABE62D000000A4
:102850002B000000200000002DE9F0410446002577
:102860001E461746880404D405E039462020B047A8
:102870006D1C641EF9D52846BDE8F0812DE9F041B4
:10288000044600251E469046C80301D5302700E0C7
:102890002027880404D505E041463846B0476D1C22
:1028A000641EF9D52846BDE8F0810A68531C0B6008
:1028B0001070704703490860002230210248FEF77B
:1028C0001FBB00003404004000000240074910B55F
:1028D0000860074C002210212046FEF711FB20461D
:1028E0000122BDE810402021FEF70ABB340400405D
:1028F00000000240074910B50860074C0122102172
:102900002046FEF7FDFA20460022BDE810402021B7
:10291000FEF7F6BA34040040000002408AB0FEF729
:1029200003FBFFF7B5F9FFF7D1F8FFF76BF9FFF7F6
:10293000A3F800212F48FEF70BFF2E484838FEF77A
:1029400083F94FF400635A1051100DF1140C481024
:102950008CE80F00C20181010DF1040C264B4001EF
:102960008CE80F0040100090244B022201212448E3
:10297000FEF714FF4FF4FA760525224CFEF705FF0B
:1029800021A0FEF7DBFF2088FEF762FF21A0FEF703
:10299000D5FF21A0FEF7D2FF3046FEF7B9F9FEF7CA
:1029A000F8FE6068C1070BD121880A2908D9B1FB5C
:1029B000F5F0FFF79FFF1DA0FEF7C0FF1FA00CE082
:1029C00023490840012820880AD00A28D6D880B296
:1029D000FFF770FFFEF7DDFE1EA0FEF7AFFFCDE7AD
:1029E0000A28F4D9B0FBF5F0FFF770FFFEF7D1FE2F
:1029F0001DA0F2E784000020000C02400004024009
:102A000000100240240000206D74722072706D204E
:102A10003D20000020000000202020202020205009
:102A2000524F4A452049492020202000696C657298
:102A300069202D2D3E2020202020000020205365DD
:102A4000796D61204B2E20495342414B20202000BC
:102A50000100008020206D6F746F722073746F709E
:102A60002021212000000000203C2D2D20676572D0
:102A700069000000000000000000000001020304E3
:102A8000060708090000000001020304AC2A000840
:102A9000000000203C000000D81F0008E82A0008C1
:102AA0003C00002084040000E81F0008010F3800EB
:102AB0000000000000000000000000000000000016
:102AC0000000000000000000000000000000000006
:102AD00000000000000000000100000010000000E5
:082AE000000000000024F400D6
:040000050800018965
:00000001FF
